{
  "contractName": "Book",
  "abi": [
    {
      "constant": true,
      "inputs": [],
      "name": "COOLDOWN_PERIOD",
      "outputs": [
        {
          "internalType": "uint256",
          "name": "",
          "type": "uint256"
        }
      ],
      "payable": false,
      "stateMutability": "view",
      "type": "function"
    },
    {
      "constant": true,
      "inputs": [],
      "name": "TOKEN_REWARD",
      "outputs": [
        {
          "internalType": "uint256",
          "name": "",
          "type": "uint256"
        }
      ],
      "payable": false,
      "stateMutability": "view",
      "type": "function"
    },
    {
      "constant": true,
      "inputs": [
        {
          "internalType": "address",
          "name": "",
          "type": "address"
        }
      ],
      "name": "bookRewards",
      "outputs": [
        {
          "internalType": "uint256",
          "name": "",
          "type": "uint256"
        }
      ],
      "payable": false,
      "stateMutability": "view",
      "type": "function"
    },
    {
      "constant": true,
      "inputs": [
        {
          "internalType": "address",
          "name": "",
          "type": "address"
        }
      ],
      "name": "lastReadTime",
      "outputs": [
        {
          "internalType": "uint256",
          "name": "",
          "type": "uint256"
        }
      ],
      "payable": false,
      "stateMutability": "view",
      "type": "function"
    },
    {
      "constant": false,
      "inputs": [],
      "name": "readBook",
      "outputs": [],
      "payable": false,
      "stateMutability": "nonpayable",
      "type": "function"
    },
    {
      "constant": true,
      "inputs": [
        {
          "internalType": "address",
          "name": "user",
          "type": "address"
        }
      ],
      "name": "getCooldownTimeRemaining",
      "outputs": [
        {
          "internalType": "uint256",
          "name": "",
          "type": "uint256"
        }
      ],
      "payable": false,
      "stateMutability": "view",
      "type": "function"
    }
  ],
  "bytecode": "0x608060405234801561001057600080fd5b50610237806100206000396000f3fe608060405234801561001057600080fd5b50600436106100625760003560e01c8063026c6fac1461006757806342d9761f146100715780636e99d52f146100a957806391f0f002146100b1578063d4ba8902146100d7578063f05c3a1b146100df575b600080fd5b61006f610105565b005b6100976004803603602081101561008757600080fd5b50356001600160a01b0316610195565b60408051918252519081900360200190f35b6100976101a7565b610097600480360360208110156100c757600080fd5b50356001600160a01b03166101ad565b6100976101bf565b610097600480360360208110156100f557600080fd5b50356001600160a01b03166101c9565b336000908152600160205260409020546107080142101561016d576040805162461bcd60e51b815260206004820152601860248201527f436f6f6c646f776e20706572696f64206e6f74206f7665720000000000000000604482015290519081900360640190fd5b336000908152602081815260408083208054651e036947100001905560019091529020429055565b60016020526000908152604090205481565b61070881565b60006020819052908152604090205481565b651e036947100081565b6001600160a01b038116600090815260016020526040812054610708014281116101f75760009150506101fd565b42900390505b91905056fea265627a7a723158205a8f7c595c40c453ee9dd76a23af9fee22695960ee2829d32e5f5ec301366bdc64736f6c63430005100032",
  "source": "// SPDX-License-Identifier: MIT\r\npragma solidity >=0.5.16;\r\n\r\ncontract Book {\r\n    mapping(address => uint256) public bookRewards; // Lưu trữ số lượng tiền coin của mỗi địa chỉ người dùng\r\n    mapping(address => uint256) public lastReadTime; // Lưu trữ thời gian đọc sách lần cuối của mỗi địa chỉ người dùng\r\n\r\n    uint256 public constant COOLDOWN_PERIOD = 30 minutes; // Thời gian cooldown giữa các lần đọc sách (30 phút)\r\n    uint256 public constant TOKEN_REWARD = 0.000033 ether; // Số lượng token nhận được cho việc đọc sách (0.000033 ether)\r\n\r\n    function readBook() external {\r\n        require(block.timestamp >= lastReadTime[msg.sender] + COOLDOWN_PERIOD, \"Cooldown period not over\"); // Kiểm tra xem thời gian cooldown đã qua hay chưa\r\n        \r\n        // Logic để đọc sách và cấp phát tiền coin\r\n        // ...\r\n\r\n        uint256 reward = TOKEN_REWARD; // Số tiền coin nhận được cho việc đọc sách (0.000033 ether)\r\n        bookRewards[msg.sender] += reward; // Tăng số lượng tiền coin của người dùng\r\n        lastReadTime[msg.sender] = block.timestamp; // Ghi nhận thời gian đọc sách mới nhất\r\n    }\r\n\r\n    function getCooldownTimeRemaining(address user) external view returns (uint256) {\r\n        uint256 cooldownEndTime = lastReadTime[user] + COOLDOWN_PERIOD; // Tính thời gian kết thúc cooldown\r\n        if (block.timestamp >= cooldownEndTime) {\r\n            return 0; // Nếu thời gian hiện tại vượt qua thời gian kết thúc cooldown, trả về 0\r\n        } else {\r\n            return cooldownEndTime - block.timestamp; // Nếu thời gian hiện tại chưa vượt qua thời gian kết thúc cooldown, trả về thời gian còn lại\r\n        }\r\n    }\r\n}\r\n",
  "sourcePath": "c:\\work\\project_web3\\web-reading-book-blockchain\\SmartContract\\contracts\\Book.sol",
  "compiler": {
    "name": "solc",
    "version": "0.5.16+commit.9c3226ce.Emscripten.clang"
  },
  "schemaVersion": "3.4.14",
  "updatedAt": "2023-06-07T13:39:30.533Z",
  "networkType": "ethereum",
  "devdoc": {
    "methods": {}
  },
  "userdoc": {
    "methods": {}
  }
}